:020000040800F2
:100000003008002031020008110900082308000808
:10001000A10800081506000863170008000000008A
:10002000000000000000000000000000D30B0008EA
:100030008906000800000000A1090008290D000839
:100040004B0200084B0200084B0200084B0200085C
:100050004B0200084B0200084B0200084B0200084C
:100060004B0200084B0200084B0200084B0200083C
:100070004B0200084B0200084B0200084B0200082C
:100080004B0200084B0200084B0200084B0200081C
:100090004B0200084B0200084B0200084B0200080C
:1000A0004B0200084B0200084B0200084B020008FC
:1000B000310F00084B0200084B0200084B020008F9
:1000C0004B0200084B0200084B0200084B020008DC
:1000D0004B020008F51200087D13000809140008FF
:1000E0004B0200084B0200084B0200084B020008BC
:1000F0004B020008E50F00084B0200084B02000805
:100100004B0200084B0200084B0200084B0200089B
:100110004B0200084B0200084B0200084B0200088B
:100120004B0200084B0200084B0200084B0200087B
:100130004B0200084B0200084B0200084B0200086B
:100140004B0200084B0200084B0200084B0200085B
:100150004B0200084B0200084B0200084B0200084B
:100160004B0200084B0200084B0200084B0200083B
:100170004B0200084B0200084B0200084B0200082B
:100180004B0200084B02000800F002F800F041F8B2
:100190000AA090E8000C82448344AAF10107DA45E2
:1001A00001D100F036F8AFF2090EBAE80F0013F0F3
:1001B000010F18BFFB1A43F0010318472019000074
:1001C00040190000103A24BF78C878C1FAD8520705
:1001D00024BF30C830C144BF04680C6070470000C1
:1001E0000023002400250026103A28BF78C1FBD840
:1001F000520728BF30C148BF0B607047642900F028
:100200007980002070471FB501F062FC1FBD10B55A
:1002100010BD00F037F91146FFF7F5FF01F088FB3C
:1002200000F055F903B4FFF7F2FF03BC01F0ECFA5C
:100230000948804709480047FEE7FEE7FEE7FEE77A
:10024000FEE7FEE7FEE7FEE7FEE7FEE704480549B6
:10025000054A064B704700002D0D00088901000873
:10026000300200203008002030040020300400203C
:10027000704700000FB4044910B503AA029800F0BB
:10028000D3F810BC5DF814FB140000202DE9F041F8
:100290000E460446002020622046E168884730B3BD
:1002A000252805D0D4E901219047206A401CF2E7B7
:1002B000E168204600278847050018D0A5F14100D5
:1002C000192802D820354FF40067324629462046C7
:1002D0002760FFF793FF40B1012804D0F61D26F0F8
:1002E00007060836D8E7361DD6E72846DAE7206A3B
:1002F000BDE8F0812DE9F04106460024106875291B
:10030000314616A510D0AFF30080002802DA404233
:1003100013A507E031688A0701D512A502E0490755
:1003200004D511A5012401E0AFF3008000210A22C9
:1003300006F1240709E0B0FBF2FCB0FBF2F302FB8C
:100340001C00303078541846491C0028F3D123464D
:100350002A463046BDE8F04100F00CB8000000002D
:100360002D0000002B0000002000000070477047A7
:10037000704770472DE9F0470D469946924604466E
:1003800000F124080168880604D5E06921F0100115
:10039000216000E00120A84201DD471B00E00027AA
:1003A000A1697A1902EB0900081AA0612078C00639
:1003B00002D42046AFF30080002608E0D4E90121F2
:1003C0001AF806009047206A401C761C20624E45B1
:1003D000F4DB2078C0060AD52046AFF3008006E0A3
:1003E000D4E9012130209047206A401C2062381E49
:1003F000A7F10107F4DC07E0D4E9012118F80500B2
:100400009047206A401C2062281EA5F10105F3DCFC
:100410002046AFF300802078000602D50220BDE818
:10042000F0870120FBE70000074B70B50D467B44C9
:1004300000F011F80446284600F020F810B14FF003
:10044000FF3070BD204670BDE314000001694A1CF6
:1004500002610878704700B58FB0CDE90131002105
:10046000059105497944CDE9031011466846FFF727
:100470000DFF0FB000BD0000E5FFFFFF007B00F0A7
:1004800080007047754600F029F8AE4605006946C1
:10049000534620F00700854618B020B5FFF7D6FE7A
:1004A000BDE820404FF000064FF000074FF0000875
:1004B0004FF0000B21F00701AC46ACE8C009ACE8F6
:1004C000C009ACE8C009ACE8C0098D4670470446D5
:1004D000AFF300802046FFF7A5FE000000487047FC
:1004E000D001002021B1826842F00102826003E065
:1004F000826822F001028260704700000021084AF1
:100500001168084A1140D0E900231A4383681A434E
:10051000C3681A431143044AC2F804137047000029
:1005200004230140E030FCFF0020014010B5012110
:10053000080200F0BBFA00214FF4807000F0B6FA18
:1005400010BD000030B50246002000235068104C5A
:1005500020400D790C6844EA0524204350609068DF
:100560000C4C2040D1E903542C438D682C434D7929
:1005700044EA450420439060D06A20F470000C7D6A
:10058000641EE4B2234340EA0350D06230BD000051
:10059000FFFEFFFCFDF7FFC000B58DB0012108464E
:1005A00000F054FA0121080200F070FA20200B90AC
:1005B00003208DF8300000208DF833000BA913487C
:1005C00000F0C0F8FFF7B2FF0020099007904FF449
:1005D0008030089000200A9007A8FFF78FFF0020C6
:1005E0008DF809000590039001208DF81800002077
:1005F00001908DF8080001A90548FFF7A3FF01212C
:100600000348FFF76FFF0DB000BD0000000002407F
:100610000020014000BFFEE708B500F07DFC124954
:1006200008804FF47A611048008800F0BBF90F4948
:10063000086001F0D7F80D48006800F041FB0B4856
:1006400001680B4800F0D9FD0748018809A0FFF7B1
:1006500011FE00200346024600900348008801B2C4
:10066000084801F080F808BD3A000020240000206E
:1006700000040040656E636F646572A3BA25640D63
:100680000A000000004800407047000000B589B033
:100690000121084600F0EAF90121084600F0F6F9C8
:1006A0000320019000208DF80B0002208DF8090036
:1006B0008DF8080001A9224800F044F80122002129
:1006C0001F4800F087F8012211461D4800F082F80B
:1006D00006A800F005FE0020ADF818004FF6FF70E8
:1006E00007900020ADF82000ADF81A0006A94FF0E1
:1006F000804000F0B3FD00231A460121880700F076
:100700009FFC03A800F008FD0520ADF8140003A924
:10071000800700F0CAFC0121880700F07FFC01225D
:100720001146900700F001FD00214FF0804000F0DD
:1007300066FD0121880700F077FC09B000BD0000CC
:1007400000000240F0B50A4600210023002400BF4B
:100750003DE0012505FA01F3156805EA03049C4212
:1007600034D105684F000326BE40B54305601579B6
:100770004E00B5400668354305601579012D02D05D
:100780001579022D16D185684F000326BE40B5436A
:10079000856055794E00B54086683543856045686B
:1007A00001268E40B5434560456896798E40B6B2C5
:1007B00035434560C5684F000326BE40B543C5605C
:1007C000D5794E00B540C6683543C560491C10292F
:1007D000BFD3F0BDF0B5002300244D07ED0E02FAA3
:1007E00005F3CE1000F1200555F826504E07F70E00
:1007F0000F26BE40B543CF1000F1200646F8275023
:10080000CE1000F1200555F8265045EA0304CE101D
:1008100000F1200545F82640F0BD41837047018373
:10082000704700BFFEE700004AF6AA2001490860B1
:1008300070470000003000401CB50121084600F060
:1008400005F94020009001208DF8040000208DF86B
:10085000060001208DF8070002208DF8050069468A
:100860000E48FFF76FFF40210C48FFF7D8FF8020AC
:10087000009001208DF8040000208DF80600012072
:100880008DF8070002208DF8050069460348FFF740
:1008900059FF80210148FFF7C2FF1CBD0000024044
:1008A00000BFFEE71CB50121022000F0CFF8402078
:1008B000009001208DF8040000208DF80600012032
:1008C0008DF8070002208DF8050069460F48FFF7F4
:1008D00039FF40210D48FFF7A0FF4FF480700090D2
:1008E00001208DF8040000208DF8060001208DF80D
:1008F000070002208DF8050069460448FFF722FF33
:100900004FF480710148FFF78AFF1CBD00040240CC
:100910007047000070B5002100230F22C4781CB37B
:10092000174C246804F4E064C4F5E064C4F30721C0
:10093000C1F10404E3B20A4144789C40E1B28478F6
:10094000144021430C07210E0E4C057861550478A4
:1009500004F01F050124AC4005786D11AD0005F1D0
:10096000E025C5F8004109E0047804F01F050124E2
:10097000AC40054D0678761145F8264070BD000064
:100980000CED00E000E400E080E100E002490143FA
:10099000024A1160704700000000FA050CED00E00B
:1009A000704700000246DFED221AB0EE610ADFED6B
:1009B000211AF0EE610ADFED201AB0EE611A501A2A
:1009C00001EE900AF8EEE11A1C48C0ED001A1C482E
:1009D000D0ED001A194890ED002A71EE821A1848DD
:1009E000C0ED001A1548D0ED001A60EE211A144827
:1009F00090ED002A40EE821A104890ED002A11482E
:100A0000D0ED002A32EE622A41EE021A0E48C0ED05
:100A1000001A0A48D0ED001A0A48C0ED001A0A4828
:100A2000D0ED001AFDEEE11A11EE900A70470000B9
:100A30000AD7A33DBD378635CDCC4C3D28000020DC
:100A400030000020340000202C00002029B1064A8C
:100A500012680243044B1A6004E0034A126882439E
:100A6000014B1A60704700003038024029B1064A35
:100A700012680243044B1A6004E0034A126882437E
:100A8000014B1A60704700004038024029B1064A05
:100A900012680243044B1A6004E0034A126882435E
:100AA000014B1A60704700004438024029B1064AE1
:100AB00012680243044B1A6004E0034A126882433E
:100AC000014B1A607047000024380240F0B5002145
:100AD00000220024022500260223324F3F6807F03F
:100AE0000C0121B1042905D0082937D105E02E4F8A
:100AF000076036E02D4F076033E02A4F3F1F3F6805
:100B0000C7F38056274F3F1F3F6807F03F036EB182
:100B1000264FB7FBF3F7DFF88CC0ACF1040CDCF820
:100B200000C0CCF3881C07FB0CF40CE01E4FB7FB95
:100B3000F3F7DFF870C0ACF1040CDCF800C0CCF3C4
:100B4000881C07FB0CF4174F3F1F3F68C7F3014792
:100B50007F1C7D00B4FBF5F7076002E0124F0760D1
:100B600000BF00BF0F4F3F6807F0F0010909104FA9
:100B70007A5C0768D74047600A4F3F6807F4E05146
:100B8000890A0B4F7A5C4768D7408760054F3F68FA
:100B900007F46041490B064F7A5C4768D740C7604D
:100BA000F0BD0000083802400024F40000127A0072
:100BB0000000002010B502460B460020002100BFB7
:100BC00004E0545C0444E0B24C1CE1B29942F8DB0E
:100BD00010BD70470CB500200190009034480068AB
:100BE00040F480303249086000BF3148006800F4AA
:100BF000003000900198401C0190009818B90198AD
:100C0000B0F5A04FF1D12A48006800F4003010B1CF
:100C10000120009001E0002000900098012846D1BA
:100C200023484030006840F080502149403108603E
:100C30002048006840F440401E4908601C480830C5
:100C400000681B49083108600846006840F400400D
:100C500008600846006840F4A05008601648091F64
:100C60000860081F006840F08070091F086000BF1E
:100C70000F48006800F000700028F9D040F20570BD
:100C80000E4908600A480830006820F0030008494F
:100C9000083108600846006840F00200086000BFA4
:100CA00003480830006800F00C000828F8D10CBD9B
:100CB000003802400070004008544007003C0240E9
:100CC00000B50246002A07DD01200A49086000201D
:100CD0000949C1F8980206E0002006490860012091
:100CE0000549C1F89802104600F03EFE034908602D
:100CF00000BD0000A082404200804042240000204D
:100D0000042808D14FF0E021096941F004014FF0B7
:100D1000E022116107E04FF0E021096921F00401B0
:100D20004FF0E022116170477047000010B5154880
:100D3000006840F47000134908601348006840F0F0
:100D400001001149086000200F49083108600E4871
:100D500000680E4908400C4908600D48091D0860EC
:100D6000081F006820F48020091F08600020064941
:100D70000C310860FFF72EFF4FF000600149803909
:100D8000086010BD88ED00E000380240FFFFF6FE6D
:100D900010300024F0B50C46154600210022068CC8
:100DA0004FF6FE773E400684018B028C4FF60C76A0
:100DB00031407E1C06EA03162E4331434FF6F5768A
:100DC000324044F00106324301830284F0BDF0B5A5
:100DD0000C461546002100220026078C4FF6EF7CBA
:100DE00007EA0C070784018B028C4FF6FF7707EAAE
:100DF000041640F6FF4739404FF6FF7707EA0337FE
:100E000039434FF6FF7707EA052739434FF65F77F7
:100E10003A4046F010073A4301830284F0BDF0B532
:100E20000C461546002100220026078C4FF6FF6C69
:100E300007EA0C070784818B028C4FF6FF7707EADD
:100E400004264FF60C7739404FF6FF7707EA031771
:100E50002F4339434FF2FF573A4046F480773A43E5
:100E600081830284F0BDF0B50C46154600210022B6
:100E70000026078C4EF6FF7C07EA0C070784818B5F
:100E8000028C4FF6FF7707EA043640F6FF473940F9
:100E90004FF6FF7707EA052739434FF6FF7707EA52
:100EA0000337394345F6FF773A4046F480573A43D3
:100EB00081830284F0BD00001FB501210802FFF705
:100EC000D5FD41F2883002905320ADF80400002097
:100ED000ADF80600ADF80C0001A90E4800F0BEF90F
:100EE000012211460B4800F020F90121094800F0C9
:100EF0009BF82D208DF8000001208DF801000320C3
:100F00008DF8020001208DF803006846FFF702FD0E
:100F10001FBD00000020004010B54FF0804000F0E1
:100F2000B0F8024908800846008810BD3E00002045
:100F300010B50121880700F0A7F818B10121880732
:100F400000F06FF810BD000030B58BB004460D46C0
:100F500001210220FFF78AFD01210420FFF776FD21
:100F60008020099002208DF8280003208DF82900A8
:100F700000208DF82A0001208DF82B0009A91748C0
:100F8000FFF7E0FB022207211448FFF723FCADF82E
:100F900018500020ADF81A000794ADF8200006A9FB
:100FA0000F4800F05BF97020ADF804000220ADF8A6
:100FB00010000120ADF8060001A9094800F0BEF8B4
:100FC0000821074800F00CF90121054800F01AF843
:100FD0000121034800F028F80BB030BD00080240A2
:100FE0000004004010B50121054800F04DF801282B
:100FF00005D10121024800F014F8FFF70DFB10BDE8
:101000000020004021B1028842F08002028004E00A
:1010100002884FF67F731A4002807047CA430282EB
:101020007047CA430282704721B1028842F0010230
:10103000028004E002884FF6FE731A400280704777
:10104000F0B50C4615461E460021002200230189FA
:10105000028B038C4FF6F877394021434FF6FC475B
:101060003A4040F201173A434FF6DD773B404FF6E6
:10107000FF7707EA06172F433B430181028303846E
:10108000F0BD0146486A704730B502460020002393
:101090000024158A05EA0103958905EA010413B1C4
:1010A0000CB1012000E0002030BD70B505460C46B3
:1010B000208850B92389A28861882846FFF76AFEF4
:1010C000E188284600F09DF825E0208804280AD110
:1010D0002389A28861882846FFF779FEE18828469F
:1010E00000F098F817E0208808280AD12389A28800
:1010F00061882846FFF793FEE188284600F097F8BC
:1011000009E02389A28861882846FFF7ACFEE188C0
:10111000284600F095F870BD002101804180012132
:1011200081800021C180018170471AB183890B43FE
:10113000838102E083898B438381704770B50024EB
:1011400000220023058C4FF6EF7635400584028C93
:101150008388048B48F6FF752C404FF6FF452C40E2
:101160000D884FF6FF7606EA05252C434FF6DF750E
:101170002A408D8906EA05152A434D8806EA051599
:101180002A43154DA84202D0144DA8421DD14FF656
:101190007F752A40CD894FF6FF7606EA05152A436A
:1011A0004FF6BF752A408D8806EA05152A434FF68B
:1011B000FF352B404FF2FF752B400D8A06EA85055F
:1011C0002B434D8A06EA85052B43838004838D6873
:1011D0008563028470BD00000000014000040140EE
:1011E0000A460021018B4FF2FF7319404FF6FF733F
:1011F00003EA022319430183704781637047416208
:101200007047028B4FF6F3731A400283028B0A4336
:1012100002837047028B4FF2FF331A400283028B26
:101220004FF6FF7303EA01231A4302837047828B50
:101230004FF6F3731A408283828B0A43828370478E
:10124000828B4FF2FF331A408283828B4FF6FF73FB
:1012500003EA01231A4382837047000000220288B8
:10126000184B98420ED0184B98420BD0B0F1804FDB
:1012700008D0164B984205D0154B984202D0154B1A
:10128000984204D14FF68F731A404B881A43124B81
:10129000984207D0114B984204D04FF6FF431A40B2
:1012A0000B891A4302804B68C3620B880385054B88
:1012B000984202D0044B984201D18B7A03860123D5
:1012C0008382704700000140000401400004004098
:1012D00000080040000C00400010004000140040D6
:1012E0004FF0FF3141600021018001814180817216
:1012F0007047000010B540F225511D4800F06FF90D
:1013000010B31B4800F024FAC4B21A48008800F455
:101310000040C8B91748008800F4804060B10A2C2A
:1013200003D000201349088020E01248008840F4D0
:1013300000401049088019E00D2C06D10D480088A6
:1013400040F480400B49088010E00A480088C0F350
:101350000D0009490C5407480088401C05490880C5
:1013600008460088C72801DD0020088010BD000065
:1013700000100140180000204000002010B540F28D
:1013800025511E4800F02BF920B31C4800F0E0F96D
:10139000C4B21B48008800F40040D8B9184800883F
:1013A00000F4804070B10A2C03D00020144908805A
:1013B00022E01348008840F4004011490880FFF7FC
:1013C00033FA19E00D2C06D10D48008840F4804016
:1013D0000B49088010E00A480088C0F30D00094955
:1013E0000C5407480088401C0549088008460088BE
:1013F000C72801DD0020088010BD00000044004027
:10140000180000204000002070B5002440F2255153
:10141000244800F0E4F8002842D0224800F098F96F
:10142000C4B22148008800F40040002838D11E488A
:10143000008800F48040C8B10A2C03D000201A496B
:1014400008802DE000251848008840F40040164927
:1014500008800846057815A0FEF70CFF29461848B5
:1014600000F096F800201049088019E00D2C06D1F4
:101470000D48008840F480400B49088010E00A487D
:101480000088C0F30D000E490C5407480088401C2A
:101490000549088008460088C72801DD002008802B
:1014A00070BD000000480040380000200D0AB7A2BF
:1014B000CBCDB5C4CFFBCFA2CEAA3A0D0A00000017
:1014C0000801002010B588B0044601210220FFF772
:1014D000BDFA01218804FFF7C9FA07220A21224830
:1014E000FFF778F907220B211F48FFF773F94FF434
:1014F0004060069002208DF81C0003208DF81D002E
:1015000000208DF81E0001208DF81F0006A9164846
:10151000FFF718F902940020ADF80C00ADF80E00AA
:10152000ADF81000ADF814000C20ADF8120002A9BF
:101530000E4800F0A3F801210C4800F037F8012212
:1015400040F22551094800F074F827208DF8040076
:1015500001208DF805008DF806008DF8070001A820
:10156000FFF7D8F908B010BD000402400048004061
:1015700010B5044600BF8021044800F023F800287D
:10158000F9D02146014800F0E8F810BD00480040BD
:1015900070B504460D4603E02078FFF7E9FF641CB0
:1015A0002800A5F101018DB2F6D170BD21B182896B
:1015B00042F40052828104E082894DF6FF731A40A2
:1015C0008281704702460020B1F5007F00D100BF44
:1015D00013880B400BB1012000E00020704770B56C
:1015E0000246002400230025002040F66A16B1427E
:1015F00000D100BFC1F3421501F01F03012606FA16
:1016000003F3012D02D19689334006E0022D02D169
:10161000168A334001E0968A33400C12012606FAFE
:1016200004F41688344013B10CB1012000E000200E
:1016300070BDF0B50346002400260025002040F6CA
:101640006A17B94200D100BF1846C1F3421401F035
:101650001F06012707FA06F5012C01D10C3004E022
:10166000022C01D1103000E014301AB107682F436A
:10167000076002E00768AF430760F0BD2DE9FF4750
:1016800005460E460024A14600BFA046B08900B121
:1016900000BF2C8A24F44054F08804432C82AC8987
:1016A00041F20C608443B088318908437189084352
:1016B0000443AC81AC8A24F44074B0890443AC8206
:1016C0006846FFF703FA2048854202D01F4885424A
:1016D00002D1DDF80C9001E0DDF80890A88900F453
:1016E000004040B109EBC90000EB09103168490026
:1016F000B0FBF1F707E009EBC90000EB0910316816
:101700008900B0FBF1F76420B7FBF0F00401200979
:10171000642101FB1078A88900F4004040B1322018
:1017200000EBC800B0FBF1F000F00700044308E054
:10173000322000EB08106421B0FBF1F000F00F0044
:1017400004432C81BDE8FF870010014000140140D4
:1017500001468888C0F308007047C1F30802828000
:10176000704700BFFEE72DE9FE4F82460C46154646
:101770001E46DDF830800027B946E0B28DF8000043
:10178000200A8DF80100E8B28DF80200280A8DF8D1
:101790000300F0B28DF80400300A8DF8050008F05F
:1017A000FF008DF806004FEA18208DF80700082189
:1017B0006846FFF7FFF981468DF8089000BF0DE0FD
:1017C0001DF807105046FFF7C8FF00BF40215046E4
:1017D000FFF7F8FE0028F9D0781CC7B2092FEFDB1D
:1017E000BDE8FE8F6420074909684242914202DA4F
:1017F0004142044A116003490968814201DD0149FF
:101800000860704724000020014600BF704710B5F3
:101810004FF4A060FFF7BAF8A82000F01BF84FF4CF
:10182000E13000F0FFF84FF4E13000F0A5F84FF49C
:10183000E130FFF747FEFEF7AFFEFEF727FFFEF7AA
:10184000FBFF53216420FFF77FFBFFF72BF8FFF727
:1018500033FB10BD10B504466FF00400FFF750FADB
:10186000E11704EB5171C1F3C701074A117010462B
:10187000007800EB4001C1EBC0104FF6FF7101EAA8
:10188000C0000249088010BD100000201200002096
:1018900070B504464FF4077094FBF0F0C6B24FF4F5
:1018A000077094FBF0F100FB114085B205E04FF4A6
:1018B000077000F009F8701EC6B2002EF7D115B1FE
:1018C000284600F001F870BD0146114A12884A43CB
:1018D0004FF0E0235A6100229A611A46126942F0E1
:1018E00001021A6100BF4FF0E022106900F001020E
:1018F0001AB100F48032002AF5D04FF0E0221269CC
:1019000022F001024FF0E0231A6100229A61704731
:101910001200002000BF054A128802F04002002A8F
:10192000F9D0C2B2014B9A8070470000001001400C
:101930000024FFF76CFF11E0282C0CDD084800683C
:10194000C0430849C1F898020846D0F89C02C04339
:10195000C1F89C0200241E20FFF79AFFECE700006C
:1019600098024042000040420146002901DA484204
:1019700000E008467047000010B588B00446012119
:101980000846FFF763F801214804FFF76FF80722C4
:1019900002212248FEF71EFF072203211F48FEF7FF
:1019A00019FF0C20069002208DF81C008DF81D00F8
:1019B00000208DF81E0001208DF81F0006A9174891
:1019C000FEF7C0FE02940020ADF80C00ADF80E004A
:1019D000ADF81000ADF814000C20ADF8120002A90B
:1019E0000F48FFF74BFE01210D48FFF7DFFD0122F5
:1019F00040F225510A48FFF71CFE26208DF804000E
:101A000003208DF805008DF8060001208DF80700F1
:101A100001A8FEF77FFF08B010BD000000000240E3
:101A20000044004010B588B0044601210846FFF785
:101A30000DF801211020FFF729F80722092122487B
:101A4000FEF7C8FE07220A211F48FEF7C3FE4FF427
:101A5000C060069002208DF81C008DF81D0000204B
:101A60008DF81E0001208DF81F0006A91648FEF70C
:101A700069FE02940020ADF80C00ADF80E00ADF840
:101A80001000ADF814000C20ADF8120002A90F48A8
:101A9000FFF7F4FD01210D48FFF788FD012240F218
:101AA00025510A48FFF7C5FD25208DF804000320C5
:101AB0008DF805008DF8060001208DF8070001A8BB
:101AC000FEF728FF08B010BD0000024000100140E2
:101AD0004FF04070E1EE100A70470000FC1A000859
:101AE0000000002040000000C40100083C1B00086A
:101AF00040000020F0070000E001000800000000A6
:101B000001020304010203040607080900000000A3
:101B100000000000000000000000000000000000C5
:101B200000000000000000000000000000000000B5
:0C1B3000000000000000000000000000A9
:0400000508000231BC
:00000001FF
